{
  "_format": "hh-sol-artifact-1",
  "contractName": "BabyBank",
  "sourceName": "contracts/BabyBank.sol",
  "abi": [
    {
      "anonymous": false,
      "inputs": [
        {
          "indexed": true,
          "internalType": "address",
          "name": "account",
          "type": "address"
        },
        {
          "indexed": false,
          "internalType": "uint256",
          "name": "amount",
          "type": "uint256"
        }
      ],
      "name": "Deposit",
      "type": "event"
    },
    {
      "anonymous": false,
      "inputs": [
        {
          "indexed": true,
          "internalType": "address",
          "name": "account",
          "type": "address"
        },
        {
          "indexed": false,
          "internalType": "uint256",
          "name": "amount",
          "type": "uint256"
        }
      ],
      "name": "Withdrawal",
      "type": "event"
    },
    {
      "inputs": [],
      "name": "deposit",
      "outputs": [],
      "stateMutability": "payable",
      "type": "function"
    },
    {
      "inputs": [
        {
          "internalType": "address",
          "name": "account",
          "type": "address"
        }
      ],
      "name": "getBalance",
      "outputs": [
        {
          "internalType": "uint256",
          "name": "",
          "type": "uint256"
        }
      ],
      "stateMutability": "view",
      "type": "function"
    },
    {
      "inputs": [],
      "name": "getTotalBalance",
      "outputs": [
        {
          "internalType": "uint256",
          "name": "",
          "type": "uint256"
        }
      ],
      "stateMutability": "view",
      "type": "function"
    },
    {
      "inputs": [],
      "name": "myBalance",
      "outputs": [
        {
          "internalType": "uint256",
          "name": "",
          "type": "uint256"
        }
      ],
      "stateMutability": "view",
      "type": "function"
    },
    {
      "inputs": [
        {
          "internalType": "uint256",
          "name": "amount",
          "type": "uint256"
        }
      ],
      "name": "withdraw",
      "outputs": [],
      "stateMutability": "nonpayable",
      "type": "function"
    }
  ],
  "bytecode": "0x608060405234801561001057600080fd5b506108e7806100206000396000f3fe60806040526004361061004a5760003560e01c806312b583491461004f5780632e1a7d4d1461007a578063c9116b69146100a3578063d0e30db0146100ce578063f8b2cb4f146100d8575b600080fd5b34801561005b57600080fd5b50610064610115565b60405161007191906104c3565b60405180910390f35b34801561008657600080fd5b506100a1600480360381019061009c919061050f565b61011d565b005b3480156100af57600080fd5b506100b8610334565b6040516100c591906104c3565b60405180910390f35b6100d661037a565b005b3480156100e457600080fd5b506100ff60048036038101906100fa919061059a565b610462565b60405161010c91906104c3565b60405180910390f35b600047905090565b60008111610160576040517f08c379a00000000000000000000000000000000000000000000000000000000081526004016101579061064a565b60405180910390fd5b806000803373ffffffffffffffffffffffffffffffffffffffff1673ffffffffffffffffffffffffffffffffffffffff1681526020019081526020016000205410156101e1576040517f08c379a00000000000000000000000000000000000000000000000000000000081526004016101d8906106b6565b60405180910390fd5b806000803373ffffffffffffffffffffffffffffffffffffffff1673ffffffffffffffffffffffffffffffffffffffff168152602001908152602001600020600082825461022f9190610705565b9250508190555060003373ffffffffffffffffffffffffffffffffffffffff168260405161025c9061076a565b60006040518083038185875af1925050503d8060008114610299576040519150601f19603f3d011682016040523d82523d6000602084013e61029e565b606091505b50509050806102e2576040517f08c379a00000000000000000000000000000000000000000000000000000000081526004016102d9906107cb565b60405180910390fd5b3373ffffffffffffffffffffffffffffffffffffffff167f7fcf532c15f0a6db0bd6d0e038bea71d30d808c7d98cb3bf7268a95bf5081b658360405161032891906104c3565b60405180910390a25050565b60008060003373ffffffffffffffffffffffffffffffffffffffff1673ffffffffffffffffffffffffffffffffffffffff16815260200190815260200160002054905090565b600034116103bd576040517f08c379a00000000000000000000000000000000000000000000000000000000081526004016103b49061085d565b60405180910390fd5b346000803373ffffffffffffffffffffffffffffffffffffffff1673ffffffffffffffffffffffffffffffffffffffff168152602001908152602001600020600082825461040b919061087d565b925050819055503373ffffffffffffffffffffffffffffffffffffffff167fe1fffcc4923d04b559f4d29a8bfc6cda04eb5b0d3c460751c2402c5c5cc9109c3460405161045891906104c3565b60405180910390a2565b60008060008373ffffffffffffffffffffffffffffffffffffffff1673ffffffffffffffffffffffffffffffffffffffff168152602001908152602001600020549050919050565b6000819050919050565b6104bd816104aa565b82525050565b60006020820190506104d860008301846104b4565b92915050565b600080fd5b6104ec816104aa565b81146104f757600080fd5b50565b600081359050610509816104e3565b92915050565b600060208284031215610525576105246104de565b5b6000610533848285016104fa565b91505092915050565b600073ffffffffffffffffffffffffffffffffffffffff82169050919050565b60006105678261053c565b9050919050565b6105778161055c565b811461058257600080fd5b50565b6000813590506105948161056e565b92915050565b6000602082840312156105b0576105af6104de565b5b60006105be84828501610585565b91505092915050565b600082825260208201905092915050565b7f5769746864726177616c20616d6f756e74206d7573742062652067726561746560008201527f72207468616e2030000000000000000000000000000000000000000000000000602082015250565b60006106346028836105c7565b915061063f826105d8565b604082019050919050565b6000602082019050818103600083015261066381610627565b9050919050565b7f496e73756666696369656e742062616c616e6365000000000000000000000000600082015250565b60006106a06014836105c7565b91506106ab8261066a565b602082019050919050565b600060208201905081810360008301526106cf81610693565b9050919050565b7f4e487b7100000000000000000000000000000000000000000000000000000000600052601160045260246000fd5b6000610710826104aa565b915061071b836104aa565b9250828203905081811115610733576107326106d6565b5b92915050565b600081905092915050565b50565b6000610754600083610739565b915061075f82610744565b600082019050919050565b600061077582610747565b9150819050919050565b7f5769746864726177616c206661696c6564000000000000000000000000000000600082015250565b60006107b56011836105c7565b91506107c08261077f565b602082019050919050565b600060208201905081810360008301526107e4816107a8565b9050919050565b7f4465706f73697420616d6f756e74206d7573742062652067726561746572207460008201527f68616e2030000000000000000000000000000000000000000000000000000000602082015250565b60006108476025836105c7565b9150610852826107eb565b604082019050919050565b600060208201905081810360008301526108768161083a565b9050919050565b6000610888826104aa565b9150610893836104aa565b92508282019050808211156108ab576108aa6106d6565b5b9291505056fea2646970667358221220bdab6ee723159406120dfe336a1a679b516e42558eade41c9cff177a36a3683564736f6c63430008130033",
  "linkReferences": {},
  "deployedLinkReferences": {}
}