{
  "_format": "hh-sol-artifact-1",
  "contractName": "BabyWallet",
  "sourceName": "contracts/BabyWallet.sol",
  "abi": [
    {
      "inputs": [],
      "stateMutability": "nonpayable",
      "type": "constructor"
    },
    {
      "anonymous": false,
      "inputs": [
        {
          "indexed": true,
          "internalType": "address",
          "name": "sender",
          "type": "address"
        },
        {
          "indexed": false,
          "internalType": "uint256",
          "name": "amount",
          "type": "uint256"
        }
      ],
      "name": "Received",
      "type": "event"
    },
    {
      "anonymous": false,
      "inputs": [
        {
          "indexed": true,
          "internalType": "address",
          "name": "recipient",
          "type": "address"
        },
        {
          "indexed": false,
          "internalType": "uint256",
          "name": "amount",
          "type": "uint256"
        }
      ],
      "name": "Sent",
      "type": "event"
    },
    {
      "inputs": [
        {
          "internalType": "address",
          "name": "newOwner",
          "type": "address"
        }
      ],
      "name": "changeOwner",
      "outputs": [],
      "stateMutability": "nonpayable",
      "type": "function"
    },
    {
      "inputs": [],
      "name": "getBalance",
      "outputs": [
        {
          "internalType": "uint256",
          "name": "",
          "type": "uint256"
        }
      ],
      "stateMutability": "view",
      "type": "function"
    },
    {
      "inputs": [],
      "name": "owner",
      "outputs": [
        {
          "internalType": "address",
          "name": "",
          "type": "address"
        }
      ],
      "stateMutability": "view",
      "type": "function"
    },
    {
      "inputs": [
        {
          "internalType": "address payable",
          "name": "recipient",
          "type": "address"
        },
        {
          "internalType": "uint256",
          "name": "amount",
          "type": "uint256"
        }
      ],
      "name": "send",
      "outputs": [],
      "stateMutability": "nonpayable",
      "type": "function"
    },
    {
      "stateMutability": "payable",
      "type": "receive"
    }
  ],
  "bytecode": "0x608060405234801561001057600080fd5b50336000806101000a81548173ffffffffffffffffffffffffffffffffffffffff021916908373ffffffffffffffffffffffffffffffffffffffff160217905550610951806100606000396000f3fe6080604052600436106100435760003560e01c806312065fe01461009d5780638da5cb5b146100c8578063a6f9dae1146100f3578063d0679d341461011c57610098565b36610098573373ffffffffffffffffffffffffffffffffffffffff167f88a5966d370b9919b20f3e2c13ff65706f196a4e32cc2c12bf57088f885258743460405161008e91906104dd565b60405180910390a2005b600080fd5b3480156100a957600080fd5b506100b2610145565b6040516100bf91906104dd565b60405180910390f35b3480156100d457600080fd5b506100dd61014d565b6040516100ea9190610539565b60405180910390f35b3480156100ff57600080fd5b5061011a60048036038101906101159190610585565b610171565b005b34801561012857600080fd5b50610143600480360381019061013e919061061c565b6102b1565b005b600047905090565b60008054906101000a900473ffffffffffffffffffffffffffffffffffffffff1681565b60008054906101000a900473ffffffffffffffffffffffffffffffffffffffff1673ffffffffffffffffffffffffffffffffffffffff163373ffffffffffffffffffffffffffffffffffffffff16146101ff576040517f08c379a00000000000000000000000000000000000000000000000000000000081526004016101f6906106df565b60405180910390fd5b600073ffffffffffffffffffffffffffffffffffffffff168173ffffffffffffffffffffffffffffffffffffffff160361026e576040517f08c379a000000000000000000000000000000000000000000000000000000000815260040161026590610771565b60405180910390fd5b806000806101000a81548173ffffffffffffffffffffffffffffffffffffffff021916908373ffffffffffffffffffffffffffffffffffffffff16021790555050565b60008054906101000a900473ffffffffffffffffffffffffffffffffffffffff1673ffffffffffffffffffffffffffffffffffffffff163373ffffffffffffffffffffffffffffffffffffffff161461033f576040517f08c379a0000000000000000000000000000000000000000000000000000000008152600401610336906106df565b60405180910390fd5b60008111610382576040517f08c379a0000000000000000000000000000000000000000000000000000000008152600401610379906107dd565b60405180910390fd5b804710156103c5576040517f08c379a00000000000000000000000000000000000000000000000000000000081526004016103bc90610849565b60405180910390fd5b60008273ffffffffffffffffffffffffffffffffffffffff16826040516103eb9061089a565b60006040518083038185875af1925050503d8060008114610428576040519150601f19603f3d011682016040523d82523d6000602084013e61042d565b606091505b5050905080610471576040517f08c379a0000000000000000000000000000000000000000000000000000000008152600401610468906108fb565b60405180910390fd5b8273ffffffffffffffffffffffffffffffffffffffff167f510ffb4dcab972ae9d2007a58e13f1b0881776d23cd8f5cc32f8c5be2dbf70d2836040516104b791906104dd565b60405180910390a2505050565b6000819050919050565b6104d7816104c4565b82525050565b60006020820190506104f260008301846104ce565b92915050565b600073ffffffffffffffffffffffffffffffffffffffff82169050919050565b6000610523826104f8565b9050919050565b61053381610518565b82525050565b600060208201905061054e600083018461052a565b92915050565b600080fd5b61056281610518565b811461056d57600080fd5b50565b60008135905061057f81610559565b92915050565b60006020828403121561059b5761059a610554565b5b60006105a984828501610570565b91505092915050565b60006105bd826104f8565b9050919050565b6105cd816105b2565b81146105d857600080fd5b50565b6000813590506105ea816105c4565b92915050565b6105f9816104c4565b811461060457600080fd5b50565b600081359050610616816105f0565b92915050565b6000806040838503121561063357610632610554565b5b6000610641858286016105db565b925050602061065285828601610607565b9150509250929050565b600082825260208201905092915050565b7f4f6e6c7920746865206f776e65722063616e2063616c6c20746869732066756e60008201527f6374696f6e000000000000000000000000000000000000000000000000000000602082015250565b60006106c960258361065c565b91506106d48261066d565b604082019050919050565b600060208201905081810360008301526106f8816106bc565b9050919050565b7f4e6577206f776e65722063616e6e6f7420626520746865207a65726f2061646460008201527f7265737300000000000000000000000000000000000000000000000000000000602082015250565b600061075b60248361065c565b9150610766826106ff565b604082019050919050565b6000602082019050818103600083015261078a8161074e565b9050919050565b7f416d6f756e74206d7573742062652067726561746572207468616e2030000000600082015250565b60006107c7601d8361065c565b91506107d282610791565b602082019050919050565b600060208201905081810360008301526107f6816107ba565b9050919050565b7f496e73756666696369656e742062616c616e6365000000000000000000000000600082015250565b600061083360148361065c565b915061083e826107fd565b602082019050919050565b6000602082019050818103600083015261086281610826565b9050919050565b600081905092915050565b50565b6000610884600083610869565b915061088f82610874565b600082019050919050565b60006108a582610877565b9150819050919050565b7f5472616e73666572206661696c65640000000000000000000000000000000000600082015250565b60006108e5600f8361065c565b91506108f0826108af565b602082019050919050565b60006020820190508181036000830152610914816108d8565b905091905056fea26469706673582212206be35076dc00ad41af2a7dedabd2a59b9579c96ccd334994bf06c505391b40cc64736f6c63430008130033",
  "linkReferences": {},
  "deployedLinkReferences": {}
}